:100000000C942A000C9434000C9434000C943400AA
:100010000C9434000C9434000C9434000C94340090
:100020000C9434000C9434000C9434000C94340080
:100030000C9434000C9434000C9434000C94340070
:100040000C9434000C9434000C9434000C94340060
:100050000C94340011241FBECFE5D8E0DEBFCDBF25
:100060000E9432010C9435010C9400006130A1F41F
:10007000813049F028F0823049F0833051F0089502
:100080008FEF8ABB08958FEF87BB08958FEF84BBF6
:1000900008958FEF81BB089561110FC0813041F049
:1000A00028F0823039F0833039F008951ABA089573
:1000B00017BA089514BA089511BA0895813041F01D
:1000C00028F0823039F0833039F008956BBB089501
:1000D00068BB089565BB089562BB0895843008F03D
:1000E00072C0673008F06FC04130A1F5813089F0EF
:1000F00028F08230C9F0833011F108952AB381E0ED
:1001000090E002C0880F991F6A95E2F7822B8ABBA4
:10011000089527B381E090E002C0880F991F6A9587
:10012000E2F7822B87BB089524B381E090E002C000
:10013000880F991F6A95E2F7822B84BB089521B33B
:1001400081E090E002C0880F991F6A95E2F7822B48
:1001500081BB0895411137C0813091F028F0823081
:10016000D9F0833029F108952AB381E090E002C0EC
:10017000880F991F6A95E2F7809582238ABB0895BC
:1001800027B381E090E002C0880F991F6A95E2F7DB
:100190008095822387BB089524B381E090E002C05C
:1001A000880F991F6A95E2F78095822384BB089592
:1001B00021B381E090E002C0880F991F6A95E2F7B1
:1001C0008095822381BB0895843088F5673078F567
:1001D000813081F028F08230B9F08330F9F027C007
:1001E00089B390E002C0959587956A95E2F7982FBC
:1001F00091701DC086B390E002C0959587956A9571
:10020000E2F7982F917013C083B390E002C09595E8
:1002100087956A95E2F7982F917009C080B390E0B6
:1002200002C0959587956A95E2F7982F9170892F6E
:10023000089561E080E00E94360040E060E082E0E6
:100240000E946E0060E082E00E94E400882329F0B2
:100250006FE080E00E945E00089560E080E00E9410
:0E0260005E0008950E941901FDCFF894FFCFB3
:00000001FF
